S014000045696E646F706472616368742E737265633B
S113000045C0000060C000005EC000005CC000008D
S11300105AC0000058C0000056C0000054C0000080
S113002052C0000050C000004EC000004CC0000090
S11300304AC0000048C0000046C0000044C00000A0
S113004042C0000040C000003EC000003CC00000B0
S11300503AC0000038C0000036C0000034C00000C0
S113006032C0000030C000002EC000002CC00000D0
S11300702AC0000028C0000026C0000024C00000E0
S113008022C0000020C000001EC0000011241FBEBA
S1130090CFEFD0E1DEBFCDBF11E0A0E0B1E0E6EDEF
S11300A0FDE000E00BBF02C007900D92A633B1073C
S11300B0D9F721E0A6E3B1E001C01D92A234B20752
S11300C0E1F7AED286C69CCF8830E0F46830D0F435
S11300D0E62FE695E695E695F0E0EE0FFF1FEE0FAE
S11300E0FF1FEE0FFF1FE80FF11D677081E090E026
S11300F002C0880F991F6A95E2F7E65CFE4F908173
S1130100892B80830895883090F4683080F4669554
S113011066956695E62FF0E0EE0FFF1FEE0FFF1FCA
S1130120EE0FFF1FE65CFE4FE80FF11D10820895ED
S11301301092710080E280937000089584EA8093A5
S11301407400809174008823E4F7089584E980930F
S1130150740008958093730084E880937400809100
S113016074008823E4F70895CF93C82FE7DF8C2F1A
S1130170F1DF81E2EFDFEADFE1DF8C2FEBDF80EA02
S1130180E9DFE4DFDBDF8C2FE5DF81EEE3DFDEDFB9
S1130190D5DF8C2FDFDF81E8DDDFD8DFCF91089555
S11301A0C7DF88EEE1CF0895CF93C8DF88EED2DFB2
S11301B080E0D0DFC0E012C0E7E0F0E0EC1BF10922
S11301C0E65CFE4F908180E8989F90011124892F6E
S11301D08695822BBFDF80E0BDDFCF5FC83060F340
S11301E0B5DFCF910895807F886085BB89EF90E06B
S11301F00197F1F700C0000085B3877F85BB89EFC5
S113020090E00197F1F700C000000895982F907FC7
S1130210986095BBE9EFF0E03197F1F700C000007A
S113022095B3977F95BBE9EFF0E03197F1F700C004
S11302300000F0E18F9FC0011124886085BB89EF25
S113024090E00197F1F700C0000085B3877F85BB7C
S1130250E9EFF0E03197F1F700C000000895982F1E
S1130260907F9C6095BBE9EFF0E03197F1F700C017
S1130270000095B3977F95BBE9EFF0E03197F1F774
S113028000C000008295807F8C6085BB89EF90E080
S11302900197F1F700C0000085B3877F85BBE9EFC4
S11302A0F0E03197F1F700C00000089580E29BDF91
S11302B088E2ACDF8CE0AADF86E0A8CF0895CF9374
S11302C0DF93FC010EC080913601909137010196B5
S11302D09093370180933601EF0121968081BFDF2F
S11302E0FE0180818111EFCFDF91CF91089581E0EC
S11302F08DCF08951ABA8FEF8BBB87BB08958FEF0C
S113030084BB15BAD3DF2FEF80E792E02150804001
S11303109040E1F700C00000EADF2FEF80E792E0B1
S1130320215080409040E1F700C0000086E091E059
S1130330C6DF2FEF89E698E1215080409040E1F735
S113034000C00000089520E030E004C09595879532
S11303502F5F3F4F0097D1F7C9010895F4D18770FB
S11303609078992324F40197886F9F6F01960196E2
S11303700895FF920F931F93CF93DF93F82EC0E05D
S1130380D0E040C0FF2029F067E070E0601B710BF3
S113039001C0B8019E01CE010397029718F48C2F77
S11303A093DE26C0C8010397029740F42250310916
S11303B02430310518F08C2F87DE1AC0C230D105E5
S11303C019F0C530D10549F40430110534F0073073
S11303D0110519F08C2F78DE0BC0C130D10519F04E
S11303E0C630D10529F40530110511F48C2F6CDECB
S11303F00F5F1F4F02C000E010E0083011050CF43D
S1130400C1CF2196C830D105B4F3CEDEDF91CF91B0
S11304101F910F91FF90089557CE08950F931F9346
S1130420CF93DF93C0E0D0E04DC0209741F4C801E2
S11304300497029720F4B801CE01EEDF39C0C13031
S1130440D10519F0C430D10551F4043011053CF044
S11304500730110521F0B801CE01DEDF29C0CE013D
S11304600297029738F40530110524F0B801CE0143
S1130470D3DF1EC0C530D10541F4C80102970497EB
S113048020F4B801CE01C8DF13C0C630D10539F459
S11304900530110524F4B801CE01BEDF09C0C73010
S11304A0D10531F4033011051CF4B801CE01B4DFD9
S11304B00F5F1F4F02C000E010E0083011050CF47C
S11304C0B4CF2196C830D105B4F36EDEDF91CF915D
S11304D01F910F9108950F931F93CF93DF9300E023
S11304E010E00CC06C2F802F0EDE219602C0C0E0FD
S11304F0D0E0C830D105B4F30F5F1F4F08301105A9
S1130500B4F352DEDF91CF911F910F9108950F93B1
S11305101F93CF93DF93CDB7DEB760970FB6F894F0
S1130520DEBF0FBECDBF1ADF909305018093040197
S1130530019721E030E0A90102C0440F551F8A95BC
S1130540E2F748BBD4DEC7DF2FDE8FE19EE40197DC
S1130550F1F700C0000080913801909139010196B3
S113056090933901809338019F938F938FE091E0AA
S11305709F938F938E010F5F1F4F1F930F93F1D0A3
S1130580C8019DDE8FE19EE40197F1F700C00000F1
S11305900F900F900F900F900F900F9089B380954C
S11305A090E0D1DE2FEF30E742E021503040404070
S11305B0E1F700C00000009789F320910401309115
S11305C005018217930759F429DF5FEF89E698E163
S11305D0515080409040E1F700C0000012C028173D
S11305E039071CF480E0C5DE02C081E0C2DE2FEFD3
S11305F039E648E1215030404040E1F700C00000B6
S1130600A1CF60960FB6F894DEBF0FBECDBFDF91C9
S1130610CF911F910F910895C3DD5DDFC5CD08957E
S1130620CF93DF93CDB7DEB760970FB6F894DEBFF4
S11306300FBECDBF5FDEF0DF62DE69DF8FE19EE4D7
S11306400197F1F700C0000052DE45DF18BA8FE1D0
S11306509EE40197F1F700C0000080913801909169
S113066039018130910519F42FE131E002C023E210
S113067031E03F932F939F938F9389E291E09F936F
S11306808F938E010F5F1F4F1F930F936AD0C80182
S113069016DE9FEF23ED80E3915020408040E1F788
S11306A000C0000010923901109238010FB6F8947E
S11306B0DEBF0FBECDBFC1CF8F929F92AF92BF92CC
S11306C0CF92DF92EF92FF92CF93DF93EC01688198
S11306D079818A819B81611571058105910521F4D8
S11306E064E279ED8BE597E02DE133EF41E050E0F2
S11306F013D349015A019B01AC01A7EAB1E428D301
S11307006B017C01ACEEB4EFA50194012DD3DC01A7
S1130710CB018C0D9D1DAE1DBF1DB7FF03C00197FE
S1130720A109B04888839983AA83BB839F77DF910B
S1130730CF91FF90EF90DF90CF90BF90AF909F90BC
S11307408F900895B9CF80E091E0B6CFA0E0B0E0FB
S11307508093000190930101A0930201B0930301DF
S113076008950F931F93CF93DF93CDB7DEB72E97E2
S11307700FB6F894DEBF0FBECDBF0D891E8986E08B
S11307808C831A8309838FEF9FE79E838D83AE0149
S1130790475E5F4F6F89788DCE01019610D0EF814F
S11307A0F885E00FF11F10822E960FB6F894DEBF85
S11307B00FBECDBFDF91CF911F910F9108952F925E
S11307C03F924F925F926F927F928F929F92AF92DD
S11307D0BF92CF92DF92EF92FF920F931F93CF932A
S11307E0DF93CDB7DEB72B970FB6F894DEBF0FBEFD
S11307F0CDBF6C017B018A01FC01178216828381C3
S113080081FFBFC1CE0101963C01F6019381F7013E
S113081093FD859193FF81917F01882309F4ADC1F4
S1130820853239F493FD859193FF81917F0185325F
S113083021F4B60190E0D6D1E8CF912C212C312CB3
S1130840FFE1F315D8F08B3279F038F4803279F087
S11308508332A1F4232D20611DC08D3261F08033D9
S113086069F4232D216016C0832D8260382EE32D78
S1130870E4603E2E2AC0F32DF8601DC037FC2DC065
S113088020ED280F2A3040F08E32B9F436FC75C1C1
S1130890232D2064322E19C036FE06C08AE0989EAD
S11308A0200D1124922E11C0EAE02E9E200D112459
S11308B0222EF32DF0623F2E08C08C3621F4832DB6
S11308C08068382E02C0883641F4F70193FD859183
S11308D093FF81917F018111B3CF982F9F7D955410
S11308E0933028F40C5F1F4F9FE399830DC0833628
S11308F031F0833771F0833509F055C020C0F80119
S1130900808189830E5F1F4F88248394912C530127
S113091012C02801F2E04F0E511CF801A080B180F2
S113092036FE03C0692D70E002C06FEF7FEFC50192
S11309304ED14C018201F32DFF773F2E15C02801C3
S113094022E0420E511CF801A080B18036FE03C0A3
S1130950692D70E002C06FEF7FEFC5012DD14C010E
S1130960F32DF0683F2E820133FC19C0822D90E0F4
S113097088169906A0F4B60180E290E033D12A9457
S1130980F5CFF50137FC859137FE81915F01B60102
S113099090E028D121102A9421E0821A9108811430
S11309A0910479F7E1C0843611F0893639F5F801FC
S11309B037FE07C060817181828193810C5F1F4F74
S11309C008C060817181072E000C880B990B0E5FA3
S11309D01F4FF32DFF763F2E97FF09C0909580950A
S11309E0709561957F4F8F4F9F4FF0683F2E2AE09F
S11309F030E0A30133D1882E861844C0853731F402
S1130A00232D2F7EB22E2AE030E025C0932D997F2E
S1130A10B92E8F36C1F018F4883579F0AEC080371E
S1130A2019F0883721F0A9C0E92FE061BE2EB4FE89
S1130A300DC0FB2DF460BF2E09C034FE0AC0292F5F
S1130A402660B22E06C028E030E005C020E130E088
S1130A5002C020E132E0F801B7FE07C06081718175
S1130A60828193810C5F1F4F06C06081718180E099
S1130A7090E00E5F1F4FA301F1D0882E8618FB2D46
S1130A80FF773F2E36FE0DC0232D2E7FA22E891414
S1130A9058F434FE0BC032FC09C0832D8E7EA82E80
S1130AA005C0B82CA32C03C0B82C01C0B92CA4FEDB
S1130AB00FC0FE01E80DF11D8081803321F49A2DD1
S1130AC0997EA92E09C0A2FE06C0B394B39404C0B3
S1130AD08A2D867809F0B394A3FC10C0A0FE06C04A
S1130AE0B21480F4280C922C9B180DC0B21458F444
S1130AF0B60180E290E076D0B394F8CFB21418F443
S1130B002B1802C0982C212CA4FE0FC0B60180E340
S1130B1090E068D0A2FE16C0A1FC03C088E790E074
S1130B2002C088E590E0B6010CC08A2D867851F0A9
S1130B30A1FE02C08BE201C080E2A7FC8DE2B601F7
S1130B4090E050D0891430F4B60180E390E04AD0AC
S1130B509A94F8CF8A94F301E80DF11D8081B601CF
S1130B6090E040D08110F6CF222009F44ECEB60199
S1130B7080E290E037D02A94F7CFF60186819781FE
S1130B8002C08FEF9FEF2B960FB6F894DEBF0FBE17
S1130B90CDBFDF91CF911F910F91FF90EF90DF9028
S1130BA0CF90BF90AF909F908F907F906F905F9009
S1130BB04F903F902F900895FC0105906150704034
S1130BC00110D8F7809590958E0F9F1F0895FC0112
S1130BD06150704001900110D8F7809590958E0F68
S1130BE09F1F08950F931F93CF93DF93FB012381DE
S1130BF021FD03C08FEF9FEF2CC022FF16C046815A
S1130C005781248135814217530744F4A081B1816F
S1130C109D012F5F3F4F318320838C932681378141
S1130C202F5F3F4F3783268314C08B01EC01FB01F8
S1130C300084F185E02D0995892BE1F6D8011696FB
S1130C408D919C911797019617969C938E93169766
S1130C50CE01DF91CF911F910F910895FA01AA2738
S1130C60283051F1203181F1E8946F936E7F6E5FEB
S1130C707F4F8F4F9F4FAF4FB1E03ED0B4E03CD099
S1130C80670F781F891F9A1FA11D680F791F8A1F7C
S1130C90911DA11D6A0F711D811D911DA11D20D0E3
S1130CA009F468943F912AE0269F11243019305D9D
S1130CB03193DEF6CF010895462F4770405D41938E
S1130CC0B3E00FD0C9F7F6CF462F4F70405D4A33DB
S1130CD018F0495D31FD4052419302D0A9F7EACFA3
S1130CE0B4E0A6959795879577956795BA95C9F7D2
S1130CF000976105710508959B01AC010A2E0694C5
S1130D005795479537952795BA95C9F7620F731F7D
S1130D10841F951FA01D0895052E97FB16F40094BB
S1130D200FD057FD05D024D007FC02D046F408C0EC
S1130D3050954095309521953F4F4F4F5F4F089503
S1130D4090958095709561957F4F8F4F9F4F089533
S1130D5031D0A59F900DB49F900DA49F800D911D3F
S1130D6011240895B7FFF4CFF3DF821B930B08958A
S1130D70A1E21A2EAA1BBB1BFD010DC0AA1FBB1F9B
S1130D80EE1FFF1FA217B307E407F50720F0A21B0D
S1130D90B30BE40BF50B661F771F881F991F1A947A
S1130DA069F760957095809590959B01AC01BD01A4
S1130DB0CF010895A29FB001B39FC001A39F700DFE
S1130DC0811D1124911DB29F700D811D1124911D4F
S1090DD00895F894FFCF22
S1130DD601000000FFFF57656C636F6D65210045D8
S1130DE66E746572206775657373202564210074BB
S1130DF6727900747269657300476F6F64212025E8
S1090E06642025732100A5
S9030000FC
